:100000009EC06BC109C1B6C0B5C0B4C0B3C0B2C058
:10001000B1C0B0C0EFC1AEC0ADC0ACC0ABC0881203
:100020000000000000000000000000000000048B41
:1000300090400C30000000000000000000000009AB
:10004000890CE0000000000000000000000000003B
:100050000589415000000000000000000000000081
:1000600000058B904001000000000000000000002F
:100070000000098B906001E000000000000000001B
:10008000000000098B905001F0000000000000000B
:10009000000000000989516000000000000000001D
:1000A0000000000000058B934011E00000000000FC
:1000B000000000000000098B924011D000000000F9
:1000C0000000000000000009000102000000000024
:1000D000FA0200000000000000FB02000100000026
:1000E0000000FA0200000100000001F90200000215
:1000F00000000001F802008000000000007B020008
:10010000080000000000F30200100000000000EBF7
:100110000200000008000002F102000000040000DC
:1001200002F50200000400000001F6020000800059
:100130000000017A0200000001000002F800112412
:100140001FBECFE5D1E0DEBFCDBF10E0A0E6B0E03E
:10015000ECE4F7E002C005900D92A236B107D9F7A2
:1001600010E0A2E6B0E001C01D92A837B107E1F7A8
:100170009ED0EBC245CF1F93AC01A0E0B0E0405F42
:100180005F4FFA0114914051504040C0892F86952D
:10019000FA01E80FF11DE4912E2F3327892F9927BB
:1001A000019681709070880F991F880F991F02C067
:1001B000359527958A95E2F763E070E0E22FFF27F7
:1001C000C39ACF01062E02C0959587950A94E2F74F
:1001D00081709070382F882329F089EA91E0019787
:1001E000F1F703C086EA8A95F1F7C398332319F033
:1001F00085E491E002C081E792E00197F1F7615058
:1002000070408FEF6F3F7807D9F611969A2FA1179C
:1002100008F4BCCF1F9108951F920F920FB60F9252
:1002200011242F933F934F938F939F93EF93FF93BB
:1002300082B7B49902C012BE2EC087518930A8F48B
:10024000E0916200FF27E859FF4F408180916300F1
:1002500027E030E0281B310981E090E002C0880FE0
:10026000991F2A95E2F7482B4083809163008F5FA6
:100270008093630080916300883068F0109263007F
:10028000809162008F5F80936200E0916200FF279F
:10029000E859FF4F1082FF91EF919F918F914F91FD
:1002A0003F912F910F900FBE0F901F901895CFE5A3
:1002B000D1E0DEBFCDBF82E08ABD83E083BF85E7AA
:1002C00089BD90E199BF80E68BBF95BB81E085BF7A
:1002D00088E087BB7DD17894FFCF1F920F920FB635
:1002E0000F9211242F933F934F935F936F937F93BC
:1002F0008F939F93AF93BF93EF93FF93B29B05C0F0
:1003000067D181E08093600002C013D264D1FF9175
:10031000EF91BF91AF919F918F917F916F915F917D
:100320004F913F912F910F900FBE0F901F901895F6
:100330001F93CF93DF9380916800883051F48EE152
:1003400090E019DF80ED97E00197F1F78FE290E000
:1003500012DF80916800893051F48FE290E00BDF6A
:1003600084EC99E00197F1F780E490E004DF80915C
:1003700068008130D9F59091690092959F70109135
:10038000690080916A001295107F82958F70182BFA
:100390009130D1F480916500109365008127C82FBA
:1003A000DD27C0FF02C0812FDFD0C2FF02C0812F36
:1003B000CBD0C3FF02C0812FB7D0C076D070CD2B79
:1003C000A9F0812FAAD012C0943081F4112311F426
:1003D00080E0E1D0C12FDD27C0FF02C0812FDBD03C
:1003E000C1FD8AD0C4FD83D0C5FD7CD0DF91CF9103
:1003F0001F9108951F920F920FB60F9211242F9301
:100400003F934F935F936F937F938F939F93AF939C
:10041000BF93EF93FF9380916200882329F4109299
:1004200063001092680017C080916400882331F443
:10043000809164008F5F809364000DC0809168009C
:10044000807F09F475DF10926200109263001092B1
:10045000680010926400FF91EF91BF91AF919F915E
:100460008F917F916F915F914F913F912F910F905D
:100470000FBE0F901F90189581E590E07CDE86ED11
:1004800096E00197F1F782E690E075DE80916500D5
:100490008E7F80936500109266000895CF92DF9260
:1004A000EF92FF920F931F936C0185E9E82E80E095
:1004B000F82EC70160DE00ED17E0C8010197F1F7E3
:1004C000C60159DEC8010197F1F7C70154DEC80122
:1004D0000197F1F7D1DF1F910F91FF90EF90DF901F
:1004E000CF90089516D186EA90E0D8DF089515D10F
:1004F00087EB90E0D3DF089580916600882319F0A0
:1005000082E690E002C083E790E035DE80916600ED
:1005100080958093660009D10895807621F080E46B
:1005200090E029DE0AD1089583FF0DC08091670015
:10053000882311F0C1D001C0BBD09EDF809165003F
:10054000877F80936500089582FF0DC080916700CA
:10055000882311F0B1D001C0A7D08EDF8091650053
:100560008B7F80936500089580FF14C080916000A8
:10057000882371F081E590E0FEDD1092600028E2B2
:1005800033E289E190E00197F1F721503040C9F75B
:1005900073DFD7D008950F931F9380FF14C084E8B2
:1005A00090E0E9DD00ED17E0C8010197F1F784E87C
:1005B00090E0E1DDC8010197F1F781E590E0DBDD36
:1005C0001092660001C058DFACD01F910F910895C2
:1005D000B99AC19A0895B998C1980895982F90959D
:1005E000C1982AE081E28A95F1F790FF02C0C19894
:1005F00001C0C19A215011F09695F4CF8AE08A95F6
:10060000F1F70895DF92EF92FF920F931F93CF932C
:10061000DF93EC018FEFE2DF85E5E0DF2796FE0157
:1006200014912797812F8D5FD9DFFE018491D6DF4A
:100630002196FE018491D2DF2196FE0184912297BA
:10064000CDDFEE24FF24D12E8E010D5F1F4F06C09B
:10065000F801E80FF11DE4918E2FC0DF8E2D089474
:10066000E11CF11C8D15A0F32896FE018491B6DFE4
:10067000DF91CF911F910F91FF90EF90DF90089540
:100680000F931F938C0188EC90E0BCDFC801BADFA8
:1006900084EC99E00197F1F7C801B4DF81E0809321
:1006A00067001F910F9108958EEF90E0E9DF0895A4
:1006B00087E091E0E5DF08950F931F9301ED10E0CF
:1006C000C801A0DF82EE94E00197F1F7C8019ADF3C
:1006D000109267001F910F9108951F93CF93DF939E
:1006E000EC01809167008111E7DF88EC90E08ADF00
:1006F00010E0CE0187DF84EC99E00197F1F71F5FEE
:100700001330B9F781ED90E07DDFDF91CF911F913C
:10071000089587E091E0E1DF08958EEF90E0DDDF5E
:10072000089584E391E0D9DF08958BE291E0D5DF6D
:10073000089589E191E0D1DF08958CEE90E0CDDF5E
:0C074000089583EE90E0C9DF0895FFCF1C
:02074C000100AA
:00000001FF
